:1000000075891190008175B0FF7C107838AD3C7E09
:1000100028111A112EDDF80880F3758DED758BF31C
:10002000D28E308FFDC28EC28F113ADEED22B83CE7
:10003000080C7800BC190280D022E875F00A84FA16
:10004000E5F093F5A0C2B01171D2B0EA93F5A0C269
:10005000B11171D2B1EC75F00A84FAE5F093F5A014
:10006000C2B21171D2B2EA93F5A0C2B31171D2B388
:1000700022758CED758AF3D28C308DFDC28CC28DC9
:0B008000223F065B4F666D7D077F6F1F
:00000001FF
